{
  "_format": "hh-sol-artifact-1",
  "contractName": "SonicERC1155",
  "sourceName": "contracts/SonicNFT.sol",
  "abi": [
    {
      "inputs": [],
      "stateMutability": "nonpayable",
      "type": "constructor"
    },
    {
      "inputs": [
        {
          "internalType": "address",
          "name": "sender",
          "type": "address"
        },
        {
          "internalType": "uint256",
          "name": "balance",
          "type": "uint256"
        },
        {
          "internalType": "uint256",
          "name": "needed",
          "type": "uint256"
        },
        {
          "internalType": "uint256",
          "name": "tokenId",
          "type": "uint256"
        }
      ],
      "name": "ERC1155InsufficientBalance",
      "type": "error"
    },
    {
      "inputs": [
        {
          "internalType": "address",
          "name": "approver",
          "type": "address"
        }
      ],
      "name": "ERC1155InvalidApprover",
      "type": "error"
    },
    {
      "inputs": [
        {
          "internalType": "uint256",
          "name": "idsLength",
          "type": "uint256"
        },
        {
          "internalType": "uint256",
          "name": "valuesLength",
          "type": "uint256"
        }
      ],
      "name": "ERC1155InvalidArrayLength",
      "type": "error"
    },
    {
      "inputs": [
        {
          "internalType": "address",
          "name": "operator",
          "type": "address"
        }
      ],
      "name": "ERC1155InvalidOperator",
      "type": "error"
    },
    {
      "inputs": [
        {
          "internalType": "address",
          "name": "receiver",
          "type": "address"
        }
      ],
      "name": "ERC1155InvalidReceiver",
      "type": "error"
    },
    {
      "inputs": [
        {
          "internalType": "address",
          "name": "sender",
          "type": "address"
        }
      ],
      "name": "ERC1155InvalidSender",
      "type": "error"
    },
    {
      "inputs": [
        {
          "internalType": "address",
          "name": "operator",
          "type": "address"
        },
        {
          "internalType": "address",
          "name": "owner",
          "type": "address"
        }
      ],
      "name": "ERC1155MissingApprovalForAll",
      "type": "error"
    },
    {
      "inputs": [
        {
          "internalType": "address",
          "name": "owner",
          "type": "address"
        }
      ],
      "name": "OwnableInvalidOwner",
      "type": "error"
    },
    {
      "inputs": [
        {
          "internalType": "address",
          "name": "account",
          "type": "address"
        }
      ],
      "name": "OwnableUnauthorizedAccount",
      "type": "error"
    },
    {
      "anonymous": false,
      "inputs": [
        {
          "indexed": true,
          "internalType": "address",
          "name": "account",
          "type": "address"
        },
        {
          "indexed": true,
          "internalType": "address",
          "name": "operator",
          "type": "address"
        },
        {
          "indexed": false,
          "internalType": "bool",
          "name": "approved",
          "type": "bool"
        }
      ],
      "name": "ApprovalForAll",
      "type": "event"
    },
    {
      "anonymous": false,
      "inputs": [
        {
          "indexed": true,
          "internalType": "address",
          "name": "previousOwner",
          "type": "address"
        },
        {
          "indexed": true,
          "internalType": "address",
          "name": "newOwner",
          "type": "address"
        }
      ],
      "name": "OwnershipTransferred",
      "type": "event"
    },
    {
      "anonymous": false,
      "inputs": [
        {
          "indexed": true,
          "internalType": "address",
          "name": "operator",
          "type": "address"
        },
        {
          "indexed": true,
          "internalType": "address",
          "name": "from",
          "type": "address"
        },
        {
          "indexed": true,
          "internalType": "address",
          "name": "to",
          "type": "address"
        },
        {
          "indexed": false,
          "internalType": "uint256[]",
          "name": "ids",
          "type": "uint256[]"
        },
        {
          "indexed": false,
          "internalType": "uint256[]",
          "name": "values",
          "type": "uint256[]"
        }
      ],
      "name": "TransferBatch",
      "type": "event"
    },
    {
      "anonymous": false,
      "inputs": [
        {
          "indexed": true,
          "internalType": "address",
          "name": "operator",
          "type": "address"
        },
        {
          "indexed": true,
          "internalType": "address",
          "name": "from",
          "type": "address"
        },
        {
          "indexed": true,
          "internalType": "address",
          "name": "to",
          "type": "address"
        },
        {
          "indexed": false,
          "internalType": "uint256",
          "name": "id",
          "type": "uint256"
        },
        {
          "indexed": false,
          "internalType": "uint256",
          "name": "value",
          "type": "uint256"
        }
      ],
      "name": "TransferSingle",
      "type": "event"
    },
    {
      "anonymous": false,
      "inputs": [
        {
          "indexed": false,
          "internalType": "string",
          "name": "value",
          "type": "string"
        },
        {
          "indexed": true,
          "internalType": "uint256",
          "name": "id",
          "type": "uint256"
        }
      ],
      "name": "URI",
      "type": "event"
    },
    {
      "inputs": [],
      "name": "ARTWORK",
      "outputs": [
        {
          "internalType": "uint256",
          "name": "",
          "type": "uint256"
        }
      ],
      "stateMutability": "view",
      "type": "function"
    },
    {
      "inputs": [],
      "name": "MUSIC",
      "outputs": [
        {
          "internalType": "uint256",
          "name": "",
          "type": "uint256"
        }
      ],
      "stateMutability": "view",
      "type": "function"
    },
    {
      "inputs": [
        {
          "internalType": "address",
          "name": "account",
          "type": "address"
        },
        {
          "internalType": "uint256",
          "name": "id",
          "type": "uint256"
        }
      ],
      "name": "balanceOf",
      "outputs": [
        {
          "internalType": "uint256",
          "name": "",
          "type": "uint256"
        }
      ],
      "stateMutability": "view",
      "type": "function"
    },
    {
      "inputs": [
        {
          "internalType": "address[]",
          "name": "accounts",
          "type": "address[]"
        },
        {
          "internalType": "uint256[]",
          "name": "ids",
          "type": "uint256[]"
        }
      ],
      "name": "balanceOfBatch",
      "outputs": [
        {
          "internalType": "uint256[]",
          "name": "",
          "type": "uint256[]"
        }
      ],
      "stateMutability": "view",
      "type": "function"
    },
    {
      "inputs": [
        {
          "internalType": "address",
          "name": "account",
          "type": "address"
        },
        {
          "internalType": "uint256",
          "name": "tokenId",
          "type": "uint256"
        }
      ],
      "name": "balanceOfToken",
      "outputs": [
        {
          "internalType": "uint256",
          "name": "",
          "type": "uint256"
        }
      ],
      "stateMutability": "view",
      "type": "function"
    },
    {
      "inputs": [
        {
          "internalType": "address",
          "name": "account",
          "type": "address"
        },
        {
          "internalType": "address",
          "name": "operator",
          "type": "address"
        }
      ],
      "name": "isApprovedForAll",
      "outputs": [
        {
          "internalType": "bool",
          "name": "",
          "type": "bool"
        }
      ],
      "stateMutability": "view",
      "type": "function"
    },
    {
      "inputs": [
        {
          "internalType": "address",
          "name": "to",
          "type": "address"
        },
        {
          "internalType": "uint256",
          "name": "tokenId",
          "type": "uint256"
        },
        {
          "internalType": "uint256",
          "name": "amount",
          "type": "uint256"
        },
        {
          "internalType": "string",
          "name": "tokenURI",
          "type": "string"
        }
      ],
      "name": "mint",
      "outputs": [],
      "stateMutability": "nonpayable",
      "type": "function"
    },
    {
      "inputs": [
        {
          "internalType": "address",
          "name": "to",
          "type": "address"
        },
        {
          "internalType": "uint256[]",
          "name": "tokenIds",
          "type": "uint256[]"
        },
        {
          "internalType": "uint256[]",
          "name": "amounts",
          "type": "uint256[]"
        },
        {
          "internalType": "string[]",
          "name": "tokenURIs",
          "type": "string[]"
        }
      ],
      "name": "mintBatch",
      "outputs": [],
      "stateMutability": "nonpayable",
      "type": "function"
    },
    {
      "inputs": [],
      "name": "owner",
      "outputs": [
        {
          "internalType": "address",
          "name": "",
          "type": "address"
        }
      ],
      "stateMutability": "view",
      "type": "function"
    },
    {
      "inputs": [],
      "name": "renounceOwnership",
      "outputs": [],
      "stateMutability": "nonpayable",
      "type": "function"
    },
    {
      "inputs": [
        {
          "internalType": "address",
          "name": "from",
          "type": "address"
        },
        {
          "internalType": "address",
          "name": "to",
          "type": "address"
        },
        {
          "internalType": "uint256[]",
          "name": "ids",
          "type": "uint256[]"
        },
        {
          "internalType": "uint256[]",
          "name": "values",
          "type": "uint256[]"
        },
        {
          "internalType": "bytes",
          "name": "data",
          "type": "bytes"
        }
      ],
      "name": "safeBatchTransferFrom",
      "outputs": [],
      "stateMutability": "nonpayable",
      "type": "function"
    },
    {
      "inputs": [
        {
          "internalType": "address",
          "name": "from",
          "type": "address"
        },
        {
          "internalType": "address",
          "name": "to",
          "type": "address"
        },
        {
          "internalType": "uint256",
          "name": "id",
          "type": "uint256"
        },
        {
          "internalType": "uint256",
          "name": "value",
          "type": "uint256"
        },
        {
          "internalType": "bytes",
          "name": "data",
          "type": "bytes"
        }
      ],
      "name": "safeTransferFrom",
      "outputs": [],
      "stateMutability": "nonpayable",
      "type": "function"
    },
    {
      "inputs": [
        {
          "internalType": "address",
          "name": "operator",
          "type": "address"
        },
        {
          "internalType": "bool",
          "name": "approved",
          "type": "bool"
        }
      ],
      "name": "setApprovalForAll",
      "outputs": [],
      "stateMutability": "nonpayable",
      "type": "function"
    },
    {
      "inputs": [
        {
          "internalType": "bytes4",
          "name": "interfaceId",
          "type": "bytes4"
        }
      ],
      "name": "supportsInterface",
      "outputs": [
        {
          "internalType": "bool",
          "name": "",
          "type": "bool"
        }
      ],
      "stateMutability": "view",
      "type": "function"
    },
    {
      "inputs": [
        {
          "internalType": "uint256",
          "name": "",
          "type": "uint256"
        }
      ],
      "name": "totalSupply",
      "outputs": [
        {
          "internalType": "uint256",
          "name": "",
          "type": "uint256"
        }
      ],
      "stateMutability": "view",
      "type": "function"
    },
    {
      "inputs": [
        {
          "internalType": "address",
          "name": "newOwner",
          "type": "address"
        }
      ],
      "name": "transferOwnership",
      "outputs": [],
      "stateMutability": "nonpayable",
      "type": "function"
    },
    {
      "inputs": [
        {
          "internalType": "uint256",
          "name": "tokenId",
          "type": "uint256"
        }
      ],
      "name": "uri",
      "outputs": [
        {
          "internalType": "string",
          "name": "",
          "type": "string"
        }
      ],
      "stateMutability": "view",
      "type": "function"
    }
  ],
  "bytecode": "0x60806040526040518060200160405280600081525060039081610022919061040a565b5034801561002f57600080fd5b503360405180606001604052806026815260200161320d60269139610059816100e160201b60201c565b50600073ffffffffffffffffffffffffffffffffffffffff168173ffffffffffffffffffffffffffffffffffffffff16036100cc5760006040517f1e4fbdf70000000000000000000000000000000000000000000000000000000081526004016100c3919061051d565b60405180910390fd5b6100db816100f460201b60201c565b50610538565b80600290816100f0919061040a565b5050565b6000600560009054906101000a900473ffffffffffffffffffffffffffffffffffffffff16905081600560006101000a81548173ffffffffffffffffffffffffffffffffffffffff021916908373ffffffffffffffffffffffffffffffffffffffff1602179055508173ffffffffffffffffffffffffffffffffffffffff168173ffffffffffffffffffffffffffffffffffffffff167f8be0079c531659141344cd1fd0a4f28419497f9722a3daafe3b4186f6b6457e060405160405180910390a35050565b600081519050919050565b7f4e487b7100000000000000000000000000000000000000000000000000000000600052604160045260246000fd5b7f4e487b7100000000000000000000000000000000000000000000000000000000600052602260045260246000fd5b6000600282049050600182168061023b57607f821691505b60208210810361024e5761024d6101f4565b5b50919050565b60008190508160005260206000209050919050565b60006020601f8301049050919050565b600082821b905092915050565b6000600883026102b67fffffffffffffffffffffffffffffffffffffffffffffffffffffffffffffffff82610279565b6102c08683610279565b95508019841693508086168417925050509392505050565b6000819050919050565b6000819050919050565b60006103076103026102fd846102d8565b6102e2565b6102d8565b9050919050565b6000819050919050565b610321836102ec565b61033561032d8261030e565b848454610286565b825550505050565b600090565b61034a61033d565b610355818484610318565b505050565b5b818110156103795761036e600082610342565b60018101905061035b565b5050565b601f8211156103be5761038f81610254565b61039884610269565b810160208510156103a7578190505b6103bb6103b385610269565b83018261035a565b50505b505050565b600082821c905092915050565b60006103e1600019846008026103c3565b1980831691505092915050565b60006103fa83836103d0565b9150826002028217905092915050565b610413826101ba565b67ffffffffffffffff81111561042c5761042b6101c5565b5b6104368254610223565b61044182828561037d565b600060209050601f8311600181146104745760008415610462578287015190505b61046c85826103ee565b8655506104d4565b601f19841661048286610254565b60005b828110156104aa57848901518255600182019150602085019450602081019050610485565b868310156104c757848901516104c3601f8916826103d0565b8355505b6001600288020188555050505b505050505050565b600073ffffffffffffffffffffffffffffffffffffffff82169050919050565b6000610507826104dc565b9050919050565b610517816104fc565b82525050565b6000602082019050610532600083018461050e565b92915050565b612cc6806105476000396000f3fe608060405234801561001057600080fd5b506004361061010a5760003560e01c8063a22cb465116100a2578063d016c55411610071578063d016c554146102b5578063e380b7bd146102d3578063e985e9c514610303578063f242432a14610333578063f2fde38b1461034f5761010a565b8063a22cb46514610231578063a55784ef1461024d578063bb7fde7114610269578063bd85b039146102855761010a565b80634e1273f4116100de5780634e1273f4146101bb578063715018a6146101eb5780638da5cb5b146101f55780639e2d0cb6146102135761010a565b8062fdd58e1461010f57806301ffc9a71461013f5780630e89341c1461016f5780632eb2c2d61461019f575b600080fd5b61012960048036038101906101249190611ad1565b61036b565b6040516101369190611b20565b60405180910390f35b61015960048036038101906101549190611b93565b6103c5565b6040516101669190611bdb565b60405180910390f35b61018960048036038101906101849190611bf6565b6104a7565b6040516101969190611cb3565b60405180910390f35b6101b960048036038101906101b49190611ed2565b61058c565b005b6101d560048036038101906101d09190612064565b610634565b6040516101e2919061219a565b60405180910390f35b6101f361073d565b005b6101fd610751565b60405161020a91906121cb565b60405180910390f35b61021b61077b565b6040516102289190611b20565b60405180910390f35b61024b60048036038101906102469190612212565b610780565b005b610267600480360381019061026291906123d4565b610796565b005b610283600480360381019061027e919061248f565b610875565b005b61029f600480360381019061029a9190611bf6565b6108d2565b6040516102ac9190611b20565b60405180910390f35b6102bd6108ea565b6040516102ca9190611b20565b60405180910390f35b6102ed60048036038101906102e89190611ad1565b6108ef565b6040516102fa9190611b20565b60405180910390f35b61031d60048036038101906103189190612512565b610903565b60405161032a9190611bdb565b60405180910390f35b61034d60048036038101906103489190612552565b610997565b005b610369600480360381019061036491906125e9565b610a3f565b005b600080600083815260200190815260200160002060008473ffffffffffffffffffffffffffffffffffffffff1673ffffffffffffffffffffffffffffffffffffffff16815260200190815260200160002054905092915050565b60007fd9b67a26000000000000000000000000000000000000000000000000000000007bffffffffffffffffffffffffffffffffffffffffffffffffffffffff1916827bffffffffffffffffffffffffffffffffffffffffffffffffffffffff1916148061049057507f0e89341c000000000000000000000000000000000000000000000000000000007bffffffffffffffffffffffffffffffffffffffffffffffffffffffff1916827bffffffffffffffffffffffffffffffffffffffffffffffffffffffff1916145b806104a0575061049f82610ac5565b5b9050919050565b606060006004600084815260200190815260200160002080546104c990612645565b80601f01602080910402602001604051908101604052809291908181526020018280546104f590612645565b80156105425780601f1061051757610100808354040283529160200191610542565b820191906000526020600020905b81548152906001019060200180831161052557829003601f168201915b5050505050905060008151116105605761055b83610b2f565b610584565b60038160405160200161057492919061274a565b6040516020818303038152906040525b915050919050565b6000610596610bc3565b90508073ffffffffffffffffffffffffffffffffffffffff168673ffffffffffffffffffffffffffffffffffffffff16141580156105db57506105d98682610903565b155b1561061f5780866040517fe237d92200000000000000000000000000000000000000000000000000000000815260040161061692919061276e565b60405180910390fd5b61062c8686868686610bcb565b505050505050565b6060815183511461068057815183516040517f5b059991000000000000000000000000000000000000000000000000000000008152600401610677929190612797565b60405180910390fd5b6000835167ffffffffffffffff81111561069d5761069c611cda565b5b6040519080825280602002602001820160405280156106cb5781602001602082028036833780820191505090505b50905060005b8451811015610732576107086106f08287610cc390919063ffffffff16565b6107038387610cd790919063ffffffff16565b61036b565b82828151811061071b5761071a6127c0565b5b6020026020010181815250508060010190506106d1565b508091505092915050565b610745610ceb565b61074f6000610d72565b565b6000600560009054906101000a900473ffffffffffffffffffffffffffffffffffffffff16905090565b600281565b61079261078b610bc3565b8383610e38565b5050565b61079e610ceb565b6107b984848460405180602001604052806000815250610fa8565b60005b835181101561086e576108038482815181106107db576107da6127c0565b5b60200260200101518383815181106107f6576107f56127c0565b5b602002602001015161102e565b828181518110610816576108156127c0565b5b602002602001015160066000868481518110610835576108346127c0565b5b60200260200101518152602001908152602001600020600082825461085a919061281e565b9250508190555080806001019150506107bc565b5050505050565b61087d610ceb565b61089884848460405180602001604052806000815250611093565b6108a2838261102e565b816006600085815260200190815260200160002060008282546108c5919061281e565b9250508190555050505050565b60066020528060005260406000206000915090505481565b600181565b60006108fb838361036b565b905092915050565b6000600160008473ffffffffffffffffffffffffffffffffffffffff1673ffffffffffffffffffffffffffffffffffffffff16815260200190815260200160002060008373ffffffffffffffffffffffffffffffffffffffff1673ffffffffffffffffffffffffffffffffffffffff16815260200190815260200160002060009054906101000a900460ff16905092915050565b60006109a1610bc3565b90508073ffffffffffffffffffffffffffffffffffffffff168673ffffffffffffffffffffffffffffffffffffffff16141580156109e657506109e48682610903565b155b15610a2a5780866040517fe237d922000000000000000000000000000000000000000000000000000000008152600401610a2192919061276e565b60405180910390fd5b610a37868686868661112c565b505050505050565b610a47610ceb565b600073ffffffffffffffffffffffffffffffffffffffff168173ffffffffffffffffffffffffffffffffffffffff1603610ab95760006040517f1e4fbdf7000000000000000000000000000000000000000000000000000000008152600401610ab091906121cb565b60405180910390fd5b610ac281610d72565b50565b60007f01ffc9a7000000000000000000000000000000000000000000000000000000007bffffffffffffffffffffffffffffffffffffffffffffffffffffffff1916827bffffffffffffffffffffffffffffffffffffffffffffffffffffffff1916149050919050565b606060028054610b3e90612645565b80601f0160208091040260200160405190810160405280929190818152602001828054610b6a90612645565b8015610bb75780601f10610b8c57610100808354040283529160200191610bb7565b820191906000526020600020905b815481529060010190602001808311610b9a57829003601f168201915b50505050509050919050565b600033905090565b600073ffffffffffffffffffffffffffffffffffffffff168473ffffffffffffffffffffffffffffffffffffffff1603610c3d5760006040517f57f447ce000000000000000000000000000000000000000000000000000000008152600401610c3491906121cb565b60405180910390fd5b600073ffffffffffffffffffffffffffffffffffffffff168573ffffffffffffffffffffffffffffffffffffffff1603610caf5760006040517f01a83514000000000000000000000000000000000000000000000000000000008152600401610ca691906121cb565b60405180910390fd5b610cbc8585858585611237565b5050505050565b600060208202602084010151905092915050565b600060208202602084010151905092915050565b610cf3610bc3565b73ffffffffffffffffffffffffffffffffffffffff16610d11610751565b73ffffffffffffffffffffffffffffffffffffffff1614610d7057610d34610bc3565b6040517f118cdaa7000000000000000000000000000000000000000000000000000000008152600401610d6791906121cb565b60405180910390fd5b565b6000600560009054906101000a900473ffffffffffffffffffffffffffffffffffffffff16905081600560006101000a81548173ffffffffffffffffffffffffffffffffffffffff021916908373ffffffffffffffffffffffffffffffffffffffff1602179055508173ffffffffffffffffffffffffffffffffffffffff168173ffffffffffffffffffffffffffffffffffffffff167f8be0079c531659141344cd1fd0a4f28419497f9722a3daafe3b4186f6b6457e060405160405180910390a35050565b600073ffffffffffffffffffffffffffffffffffffffff168273ffffffffffffffffffffffffffffffffffffffff1603610eaa5760006040517fced3e100000000000000000000000000000000000000000000000000000000008152600401610ea191906121cb565b60405180910390fd5b80600160008573ffffffffffffffffffffffffffffffffffffffff1673ffffffffffffffffffffffffffffffffffffffff16815260200190815260200160002060008473ffffffffffffffffffffffffffffffffffffffff1673ffffffffffffffffffffffffffffffffffffffff16815260200190815260200160002060006101000a81548160ff0219169083151502179055508173ffffffffffffffffffffffffffffffffffffffff168373ffffffffffffffffffffffffffffffffffffffff167f17307eab39ab6107e8899845ad3d59bd9653f200f220920489ca2b5937696c3183604051610f9b9190611bdb565b60405180910390a3505050565b600073ffffffffffffffffffffffffffffffffffffffff168473ffffffffffffffffffffffffffffffffffffffff160361101a5760006040517f57f447ce00000000000000000000000000000000000000000000000000000000815260040161101191906121cb565b60405180910390fd5b611028600085858585611237565b50505050565b8060046000848152602001908152602001600020908161104e91906129e9565b50817f6bb7ff708619ba0610cba295a58592e0451dee2622938c8755667688daf3529b61107a846104a7565b6040516110879190611cb3565b60405180910390a25050565b600073ffffffffffffffffffffffffffffffffffffffff168473ffffffffffffffffffffffffffffffffffffffff16036111055760006040517f57f447ce0000000000000000000000000000000000000000000000000000000081526004016110fc91906121cb565b60405180910390fd5b60008061111285856112e9565b91509150611124600087848487611237565b505050505050565b600073ffffffffffffffffffffffffffffffffffffffff168473ffffffffffffffffffffffffffffffffffffffff160361119e5760006040517f57f447ce00000000000000000000000000000000000000000000000000000000815260040161119591906121cb565b60405180910390fd5b600073ffffffffffffffffffffffffffffffffffffffff168573ffffffffffffffffffffffffffffffffffffffff16036112105760006040517f01a8351400000000000000000000000000000000000000000000000000000000815260040161120791906121cb565b60405180910390fd5b60008061121d85856112e9565b9150915061122e8787848487611237565b50505050505050565b61124385858585611319565b600073ffffffffffffffffffffffffffffffffffffffff168473ffffffffffffffffffffffffffffffffffffffff16146112e2576000611281610bc3565b905060018451036112d15760006112a2600086610cd790919063ffffffff16565b905060006112ba600086610cd790919063ffffffff16565b90506112ca8389898585896116c1565b50506112e0565b6112df818787878787611875565b5b505b5050505050565b60608060405191506001825283602083015260408201905060018152826020820152604081016040529250929050565b805182511461136357815181516040517f5b05999100000000000000000000000000000000000000000000000000000000815260040161135a929190612797565b60405180910390fd5b600061136d610bc3565b905060005b835181101561157c5760006113908286610cd790919063ffffffff16565b905060006113a78386610cd790919063ffffffff16565b9050600073ffffffffffffffffffffffffffffffffffffffff168873ffffffffffffffffffffffffffffffffffffffff16146114d457600080600084815260200190815260200160002060008a73ffffffffffffffffffffffffffffffffffffffff1673ffffffffffffffffffffffffffffffffffffffff1681526020019081526020016000205490508181101561147c57888183856040517f03dee4c50000000000000000000000000000000000000000000000000000000081526004016114739493929190612abb565b60405180910390fd5b81810360008085815260200190815260200160002060008b73ffffffffffffffffffffffffffffffffffffffff1673ffffffffffffffffffffffffffffffffffffffff16815260200190815260200160002081905550505b600073ffffffffffffffffffffffffffffffffffffffff168773ffffffffffffffffffffffffffffffffffffffff161461156f578060008084815260200190815260200160002060008973ffffffffffffffffffffffffffffffffffffffff1673ffffffffffffffffffffffffffffffffffffffff1681526020019081526020016000206000828254611567919061281e565b925050819055505b5050806001019050611372565b50600183510361163b57600061159c600085610cd790919063ffffffff16565b905060006115b4600085610cd790919063ffffffff16565b90508573ffffffffffffffffffffffffffffffffffffffff168773ffffffffffffffffffffffffffffffffffffffff168473ffffffffffffffffffffffffffffffffffffffff167fc3d58168c5ae7397731d063d5bbf3d657854427343f4c083240f7aacaa2d0f62858560405161162c929190612797565b60405180910390a450506116ba565b8373ffffffffffffffffffffffffffffffffffffffff168573ffffffffffffffffffffffffffffffffffffffff168273ffffffffffffffffffffffffffffffffffffffff167f4a39dc06d4c0dbc64b70af90fd698a233a518aa5d07e595d983b8c0526c8f7fb86866040516116b1929190612b00565b60405180910390a45b5050505050565b60008473ffffffffffffffffffffffffffffffffffffffff163b111561186d578373ffffffffffffffffffffffffffffffffffffffff1663f23a6e6187878686866040518663ffffffff1660e01b8152600401611722959493929190612b8c565b6020604051808303816000875af192505050801561175e57506040513d601f19601f8201168201806040525081019061175b9190612bfb565b60015b6117e2573d806000811461178e576040519150601f19603f3d011682016040523d82523d6000602084013e611793565b606091505b5060008151036117da57846040517f57f447ce0000000000000000000000000000000000000000000000000000000081526004016117d191906121cb565b60405180910390fd5b805181602001fd5b63f23a6e6160e01b7bffffffffffffffffffffffffffffffffffffffffffffffffffffffff1916817bffffffffffffffffffffffffffffffffffffffffffffffffffffffff19161461186b57846040517f57f447ce00000000000000000000000000000000000000000000000000000000815260040161186291906121cb565b60405180910390fd5b505b505050505050565b60008473ffffffffffffffffffffffffffffffffffffffff163b1115611a21578373ffffffffffffffffffffffffffffffffffffffff1663bc197c8187878686866040518663ffffffff1660e01b81526004016118d6959493929190612c28565b6020604051808303816000875af192505050801561191257506040513d601f19601f8201168201806040525081019061190f9190612bfb565b60015b611996573d8060008114611942576040519150601f19603f3d011682016040523d82523d6000602084013e611947565b606091505b50600081510361198e57846040517f57f447ce00000000000000000000000000000000000000000000000000000000815260040161198591906121cb565b60405180910390fd5b805181602001fd5b63bc197c8160e01b7bffffffffffffffffffffffffffffffffffffffffffffffffffffffff1916817bffffffffffffffffffffffffffffffffffffffffffffffffffffffff191614611a1f57846040517f57f447ce000000000000000000000000000000000000000000000000000000008152600401611a1691906121cb565b60405180910390fd5b505b505050505050565b6000604051905090565b600080fd5b600080fd5b600073ffffffffffffffffffffffffffffffffffffffff82169050919050565b6000611a6882611a3d565b9050919050565b611a7881611a5d565b8114611a8357600080fd5b50565b600081359050611a9581611a6f565b92915050565b6000819050919050565b611aae81611a9b565b8114611ab957600080fd5b50565b600081359050611acb81611aa5565b92915050565b60008060408385031215611ae857611ae7611a33565b5b6000611af685828601611a86565b9250506020611b0785828601611abc565b9150509250929050565b611b1a81611a9b565b82525050565b6000602082019050611b356000830184611b11565b92915050565b60007fffffffff0000000000000000000000000000000000000000000000000000000082169050919050565b611b7081611b3b565b8114611b7b57600080fd5b50565b600081359050611b8d81611b67565b92915050565b600060208284031215611ba957611ba8611a33565b5b6000611bb784828501611b7e565b91505092915050565b60008115159050919050565b611bd581611bc0565b82525050565b6000602082019050611bf06000830184611bcc565b92915050565b600060208284031215611c0c57611c0b611a33565b5b6000611c1a84828501611abc565b91505092915050565b600081519050919050565b600082825260208201905092915050565b60005b83811015611c5d578082015181840152602081019050611c42565b60008484015250505050565b6000601f19601f8301169050919050565b6000611c8582611c23565b611c8f8185611c2e565b9350611c9f818560208601611c3f565b611ca881611c69565b840191505092915050565b60006020820190508181036000830152611ccd8184611c7a565b905092915050565b600080fd5b7f4e487b7100000000000000000000000000000000000000000000000000000000600052604160045260246000fd5b611d1282611c69565b810181811067ffffffffffffffff82111715611d3157611d30611cda565b5b80604052505050565b6000611d44611a29565b9050611d508282611d09565b919050565b600067ffffffffffffffff821115611d7057611d6f611cda565b5b602082029050602081019050919050565b600080fd5b6000611d99611d9484611d55565b611d3a565b90508083825260208201905060208402830185811115611dbc57611dbb611d81565b5b835b81811015611de55780611dd18882611abc565b845260208401935050602081019050611dbe565b5050509392505050565b600082601f830112611e0457611e03611cd5565b5b8135611e14848260208601611d86565b91505092915050565b600080fd5b600067ffffffffffffffff821115611e3d57611e3c611cda565b5b611e4682611c69565b9050602081019050919050565b82818337600083830152505050565b6000611e75611e7084611e22565b611d3a565b905082815260208101848484011115611e9157611e90611e1d565b5b611e9c848285611e53565b509392505050565b600082601f830112611eb957611eb8611cd5565b5b8135611ec9848260208601611e62565b91505092915050565b600080600080600060a08688031215611eee57611eed611a33565b5b6000611efc88828901611a86565b9550506020611f0d88828901611a86565b945050604086013567ffffffffffffffff811115611f2e57611f2d611a38565b5b611f3a88828901611def565b935050606086013567ffffffffffffffff811115611f5b57611f5a611a38565b5b611f6788828901611def565b925050608086013567ffffffffffffffff811115611f8857611f87611a38565b5b611f9488828901611ea4565b9150509295509295909350565b600067ffffffffffffffff821115611fbc57611fbb611cda565b5b602082029050602081019050919050565b6000611fe0611fdb84611fa1565b611d3a565b9050808382526020820190506020840283018581111561200357612002611d81565b5b835b8181101561202c57806120188882611a86565b845260208401935050602081019050612005565b5050509392505050565b600082601f83011261204b5761204a611cd5565b5b813561205b848260208601611fcd565b91505092915050565b6000806040838503121561207b5761207a611a33565b5b600083013567ffffffffffffffff81111561209957612098611a38565b5b6120a585828601612036565b925050602083013567ffffffffffffffff8111156120c6576120c5611a38565b5b6120d285828601611def565b9150509250929050565b600081519050919050565b600082825260208201905092915050565b6000819050602082019050919050565b61211181611a9b565b82525050565b60006121238383612108565b60208301905092915050565b6000602082019050919050565b6000612147826120dc565b61215181856120e7565b935061215c836120f8565b8060005b8381101561218d5781516121748882612117565b975061217f8361212f565b925050600181019050612160565b5085935050505092915050565b600060208201905081810360008301526121b4818461213c565b905092915050565b6121c581611a5d565b82525050565b60006020820190506121e060008301846121bc565b92915050565b6121ef81611bc0565b81146121fa57600080fd5b50565b60008135905061220c816121e6565b92915050565b6000806040838503121561222957612228611a33565b5b600061223785828601611a86565b9250506020612248858286016121fd565b9150509250929050565b600067ffffffffffffffff82111561226d5761226c611cda565b5b602082029050602081019050919050565b600067ffffffffffffffff82111561229957612298611cda565b5b6122a282611c69565b9050602081019050919050565b60006122c26122bd8461227e565b611d3a565b9050828152602081018484840111156122de576122dd611e1d565b5b6122e9848285611e53565b509392505050565b600082601f83011261230657612305611cd5565b5b81356123168482602086016122af565b91505092915050565b600061233261232d84612252565b611d3a565b9050808382526020820190506020840283018581111561235557612354611d81565b5b835b8181101561239c57803567ffffffffffffffff81111561237a57612379611cd5565b5b80860161238789826122f1565b85526020850194505050602081019050612357565b5050509392505050565b600082601f8301126123bb576123ba611cd5565b5b81356123cb84826020860161231f565b91505092915050565b600080600080608085870312156123ee576123ed611a33565b5b60006123fc87828801611a86565b945050602085013567ffffffffffffffff81111561241d5761241c611a38565b5b61242987828801611def565b935050604085013567ffffffffffffffff81111561244a57612449611a38565b5b61245687828801611def565b925050606085013567ffffffffffffffff81111561247757612476611a38565b5b612483878288016123a6565b91505092959194509250565b600080600080608085870312156124a9576124a8611a33565b5b60006124b787828801611a86565b94505060206124c887828801611abc565b93505060406124d987828801611abc565b925050606085013567ffffffffffffffff8111156124fa576124f9611a38565b5b612506878288016122f1565b91505092959194509250565b6000806040838503121561252957612528611a33565b5b600061253785828601611a86565b925050602061254885828601611a86565b9150509250929050565b600080600080600060a0868803121561256e5761256d611a33565b5b600061257c88828901611a86565b955050602061258d88828901611a86565b945050604061259e88828901611abc565b93505060606125af88828901611abc565b925050608086013567ffffffffffffffff8111156125d0576125cf611a38565b5b6125dc88828901611ea4565b9150509295509295909350565b6000602082840312156125ff576125fe611a33565b5b600061260d84828501611a86565b91505092915050565b7f4e487b7100000000000000000000000000000000000000000000000000000000600052602260045260246000fd5b6000600282049050600182168061265d57607f821691505b6020821081036126705761266f612616565b5b50919050565b600081905092915050565b60008190508160005260206000209050919050565b600081546126a381612645565b6126ad8186612676565b945060018216600081146126c857600181146126dd57612710565b60ff1983168652811515820286019350612710565b6126e685612681565b60005b83811015612708578154818901526001820191506020810190506126e9565b838801955050505b50505092915050565b600061272482611c23565b61272e8185612676565b935061273e818560208601611c3f565b80840191505092915050565b60006127568285612696565b91506127628284612719565b91508190509392505050565b600060408201905061278360008301856121bc565b61279060208301846121bc565b9392505050565b60006040820190506127ac6000830185611b11565b6127b96020830184611b11565b9392505050565b7f4e487b7100000000000000000000000000000000000000000000000000000000600052603260045260246000fd5b7f4e487b7100000000000000000000000000000000000000000000000000000000600052601160045260246000fd5b600061282982611a9b565b915061283483611a9b565b925082820190508082111561284c5761284b6127ef565b5b92915050565b60006020601f8301049050919050565b600082821b905092915050565b60006008830261289f7fffffffffffffffffffffffffffffffffffffffffffffffffffffffffffffffff82612862565b6128a98683612862565b95508019841693508086168417925050509392505050565b6000819050919050565b60006128e66128e16128dc84611a9b565b6128c1565b611a9b565b9050919050565b6000819050919050565b612900836128cb565b61291461290c826128ed565b84845461286f565b825550505050565b600090565b61292961291c565b6129348184846128f7565b505050565b5b818110156129585761294d600082612921565b60018101905061293a565b5050565b601f82111561299d5761296e81612681565b61297784612852565b81016020851015612986578190505b61299a61299285612852565b830182612939565b50505b505050565b600082821c905092915050565b60006129c0600019846008026129a2565b1980831691505092915050565b60006129d983836129af565b9150826002028217905092915050565b6129f282611c23565b67ffffffffffffffff811115612a0b57612a0a611cda565b5b612a158254612645565b612a2082828561295c565b600060209050601f831160018114612a535760008415612a41578287015190505b612a4b85826129cd565b865550612ab3565b601f198416612a6186612681565b60005b82811015612a8957848901518255600182019150602085019450602081019050612a64565b86831015612aa65784890151612aa2601f8916826129af565b8355505b6001600288020188555050505b505050505050565b6000608082019050612ad060008301876121bc565b612add6020830186611b11565b612aea6040830185611b11565b612af76060830184611b11565b95945050505050565b60006040820190508181036000830152612b1a818561213c565b90508181036020830152612b2e818461213c565b90509392505050565b600081519050919050565b600082825260208201905092915050565b6000612b5e82612b37565b612b688185612b42565b9350612b78818560208601611c3f565b612b8181611c69565b840191505092915050565b600060a082019050612ba160008301886121bc565b612bae60208301876121bc565b612bbb6040830186611b11565b612bc86060830185611b11565b8181036080830152612bda8184612b53565b90509695505050505050565b600081519050612bf581611b67565b92915050565b600060208284031215612c1157612c10611a33565b5b6000612c1f84828501612be6565b91505092915050565b600060a082019050612c3d60008301886121bc565b612c4a60208301876121bc565b8181036040830152612c5c818661213c565b90508181036060830152612c70818561213c565b90508181036080830152612c848184612b53565b9050969550505050505056fea2646970667358221220bfe0db6a518cc772f608ab17a0f7d1e7808d606eb15cd8b35cee471f926f999564736f6c634300081c0033697066733a2f2f516d596f75724d65746164617461426173655552492f7b69647d2e6a736f6e",
  "linkReferences": {},
  "deployedLinkReferences": {}
}