{
  "_format": "hh-sol-artifact-1",
  "contractName": "SonicNFT",
  "sourceName": "contracts/SonicNFT.sol",
  "abi": [
    {
      "inputs": [],
      "stateMutability": "nonpayable",
      "type": "constructor"
    },
    {
      "inputs": [
        {
          "internalType": "address",
          "name": "sender",
          "type": "address"
        },
        {
          "internalType": "uint256",
          "name": "tokenId",
          "type": "uint256"
        },
        {
          "internalType": "address",
          "name": "owner",
          "type": "address"
        }
      ],
      "name": "ERC721IncorrectOwner",
      "type": "error"
    },
    {
      "inputs": [
        {
          "internalType": "address",
          "name": "operator",
          "type": "address"
        },
        {
          "internalType": "uint256",
          "name": "tokenId",
          "type": "uint256"
        }
      ],
      "name": "ERC721InsufficientApproval",
      "type": "error"
    },
    {
      "inputs": [
        {
          "internalType": "address",
          "name": "approver",
          "type": "address"
        }
      ],
      "name": "ERC721InvalidApprover",
      "type": "error"
    },
    {
      "inputs": [
        {
          "internalType": "address",
          "name": "operator",
          "type": "address"
        }
      ],
      "name": "ERC721InvalidOperator",
      "type": "error"
    },
    {
      "inputs": [
        {
          "internalType": "address",
          "name": "owner",
          "type": "address"
        }
      ],
      "name": "ERC721InvalidOwner",
      "type": "error"
    },
    {
      "inputs": [
        {
          "internalType": "address",
          "name": "receiver",
          "type": "address"
        }
      ],
      "name": "ERC721InvalidReceiver",
      "type": "error"
    },
    {
      "inputs": [
        {
          "internalType": "address",
          "name": "sender",
          "type": "address"
        }
      ],
      "name": "ERC721InvalidSender",
      "type": "error"
    },
    {
      "inputs": [
        {
          "internalType": "uint256",
          "name": "tokenId",
          "type": "uint256"
        }
      ],
      "name": "ERC721NonexistentToken",
      "type": "error"
    },
    {
      "inputs": [
        {
          "internalType": "address",
          "name": "owner",
          "type": "address"
        }
      ],
      "name": "OwnableInvalidOwner",
      "type": "error"
    },
    {
      "inputs": [
        {
          "internalType": "address",
          "name": "account",
          "type": "address"
        }
      ],
      "name": "OwnableUnauthorizedAccount",
      "type": "error"
    },
    {
      "anonymous": false,
      "inputs": [
        {
          "indexed": true,
          "internalType": "address",
          "name": "owner",
          "type": "address"
        },
        {
          "indexed": true,
          "internalType": "address",
          "name": "approved",
          "type": "address"
        },
        {
          "indexed": true,
          "internalType": "uint256",
          "name": "tokenId",
          "type": "uint256"
        }
      ],
      "name": "Approval",
      "type": "event"
    },
    {
      "anonymous": false,
      "inputs": [
        {
          "indexed": true,
          "internalType": "address",
          "name": "owner",
          "type": "address"
        },
        {
          "indexed": true,
          "internalType": "address",
          "name": "operator",
          "type": "address"
        },
        {
          "indexed": false,
          "internalType": "bool",
          "name": "approved",
          "type": "bool"
        }
      ],
      "name": "ApprovalForAll",
      "type": "event"
    },
    {
      "anonymous": false,
      "inputs": [
        {
          "indexed": false,
          "internalType": "uint256",
          "name": "_fromTokenId",
          "type": "uint256"
        },
        {
          "indexed": false,
          "internalType": "uint256",
          "name": "_toTokenId",
          "type": "uint256"
        }
      ],
      "name": "BatchMetadataUpdate",
      "type": "event"
    },
    {
      "anonymous": false,
      "inputs": [
        {
          "indexed": false,
          "internalType": "uint256",
          "name": "_tokenId",
          "type": "uint256"
        }
      ],
      "name": "MetadataUpdate",
      "type": "event"
    },
    {
      "anonymous": false,
      "inputs": [
        {
          "indexed": true,
          "internalType": "address",
          "name": "previousOwner",
          "type": "address"
        },
        {
          "indexed": true,
          "internalType": "address",
          "name": "newOwner",
          "type": "address"
        }
      ],
      "name": "OwnershipTransferred",
      "type": "event"
    },
    {
      "anonymous": false,
      "inputs": [
        {
          "indexed": true,
          "internalType": "address",
          "name": "from",
          "type": "address"
        },
        {
          "indexed": true,
          "internalType": "address",
          "name": "to",
          "type": "address"
        },
        {
          "indexed": true,
          "internalType": "uint256",
          "name": "tokenId",
          "type": "uint256"
        }
      ],
      "name": "Transfer",
      "type": "event"
    },
    {
      "inputs": [
        {
          "internalType": "address",
          "name": "to",
          "type": "address"
        },
        {
          "internalType": "uint256",
          "name": "tokenId",
          "type": "uint256"
        }
      ],
      "name": "approve",
      "outputs": [],
      "stateMutability": "nonpayable",
      "type": "function"
    },
    {
      "inputs": [
        {
          "internalType": "address",
          "name": "owner",
          "type": "address"
        }
      ],
      "name": "balanceOf",
      "outputs": [
        {
          "internalType": "uint256",
          "name": "",
          "type": "uint256"
        }
      ],
      "stateMutability": "view",
      "type": "function"
    },
    {
      "inputs": [
        {
          "internalType": "uint256",
          "name": "tokenId",
          "type": "uint256"
        }
      ],
      "name": "buyNFT",
      "outputs": [],
      "stateMutability": "payable",
      "type": "function"
    },
    {
      "inputs": [
        {
          "internalType": "uint256",
          "name": "tokenId",
          "type": "uint256"
        }
      ],
      "name": "getApproved",
      "outputs": [
        {
          "internalType": "address",
          "name": "",
          "type": "address"
        }
      ],
      "stateMutability": "view",
      "type": "function"
    },
    {
      "inputs": [
        {
          "internalType": "address",
          "name": "owner",
          "type": "address"
        },
        {
          "internalType": "address",
          "name": "operator",
          "type": "address"
        }
      ],
      "name": "isApprovedForAll",
      "outputs": [
        {
          "internalType": "bool",
          "name": "",
          "type": "bool"
        }
      ],
      "stateMutability": "view",
      "type": "function"
    },
    {
      "inputs": [
        {
          "internalType": "uint256",
          "name": "tokenId",
          "type": "uint256"
        },
        {
          "internalType": "uint256",
          "name": "price",
          "type": "uint256"
        }
      ],
      "name": "listForSale",
      "outputs": [],
      "stateMutability": "nonpayable",
      "type": "function"
    },
    {
      "inputs": [
        {
          "internalType": "address",
          "name": "recipient",
          "type": "address"
        },
        {
          "internalType": "string",
          "name": "tokenURI",
          "type": "string"
        }
      ],
      "name": "mintNFT",
      "outputs": [
        {
          "internalType": "uint256",
          "name": "",
          "type": "uint256"
        }
      ],
      "stateMutability": "nonpayable",
      "type": "function"
    },
    {
      "inputs": [],
      "name": "name",
      "outputs": [
        {
          "internalType": "string",
          "name": "",
          "type": "string"
        }
      ],
      "stateMutability": "view",
      "type": "function"
    },
    {
      "inputs": [
        {
          "internalType": "uint256",
          "name": "",
          "type": "uint256"
        }
      ],
      "name": "nftPrices",
      "outputs": [
        {
          "internalType": "uint256",
          "name": "",
          "type": "uint256"
        }
      ],
      "stateMutability": "view",
      "type": "function"
    },
    {
      "inputs": [],
      "name": "owner",
      "outputs": [
        {
          "internalType": "address",
          "name": "",
          "type": "address"
        }
      ],
      "stateMutability": "view",
      "type": "function"
    },
    {
      "inputs": [
        {
          "internalType": "uint256",
          "name": "tokenId",
          "type": "uint256"
        }
      ],
      "name": "ownerOf",
      "outputs": [
        {
          "internalType": "address",
          "name": "",
          "type": "address"
        }
      ],
      "stateMutability": "view",
      "type": "function"
    },
    {
      "inputs": [],
      "name": "renounceOwnership",
      "outputs": [],
      "stateMutability": "nonpayable",
      "type": "function"
    },
    {
      "inputs": [
        {
          "internalType": "address",
          "name": "from",
          "type": "address"
        },
        {
          "internalType": "address",
          "name": "to",
          "type": "address"
        },
        {
          "internalType": "uint256",
          "name": "tokenId",
          "type": "uint256"
        }
      ],
      "name": "safeTransferFrom",
      "outputs": [],
      "stateMutability": "nonpayable",
      "type": "function"
    },
    {
      "inputs": [
        {
          "internalType": "address",
          "name": "from",
          "type": "address"
        },
        {
          "internalType": "address",
          "name": "to",
          "type": "address"
        },
        {
          "internalType": "uint256",
          "name": "tokenId",
          "type": "uint256"
        },
        {
          "internalType": "bytes",
          "name": "data",
          "type": "bytes"
        }
      ],
      "name": "safeTransferFrom",
      "outputs": [],
      "stateMutability": "nonpayable",
      "type": "function"
    },
    {
      "inputs": [
        {
          "internalType": "address",
          "name": "operator",
          "type": "address"
        },
        {
          "internalType": "bool",
          "name": "approved",
          "type": "bool"
        }
      ],
      "name": "setApprovalForAll",
      "outputs": [],
      "stateMutability": "nonpayable",
      "type": "function"
    },
    {
      "inputs": [
        {
          "internalType": "bytes4",
          "name": "interfaceId",
          "type": "bytes4"
        }
      ],
      "name": "supportsInterface",
      "outputs": [
        {
          "internalType": "bool",
          "name": "",
          "type": "bool"
        }
      ],
      "stateMutability": "view",
      "type": "function"
    },
    {
      "inputs": [],
      "name": "symbol",
      "outputs": [
        {
          "internalType": "string",
          "name": "",
          "type": "string"
        }
      ],
      "stateMutability": "view",
      "type": "function"
    },
    {
      "inputs": [
        {
          "internalType": "uint256",
          "name": "tokenId",
          "type": "uint256"
        }
      ],
      "name": "tokenURI",
      "outputs": [
        {
          "internalType": "string",
          "name": "",
          "type": "string"
        }
      ],
      "stateMutability": "view",
      "type": "function"
    },
    {
      "inputs": [
        {
          "internalType": "address",
          "name": "from",
          "type": "address"
        },
        {
          "internalType": "address",
          "name": "to",
          "type": "address"
        },
        {
          "internalType": "uint256",
          "name": "tokenId",
          "type": "uint256"
        }
      ],
      "name": "transferFrom",
      "outputs": [],
      "stateMutability": "nonpayable",
      "type": "function"
    },
    {
      "inputs": [
        {
          "internalType": "address",
          "name": "newOwner",
          "type": "address"
        }
      ],
      "name": "transferOwnership",
      "outputs": [],
      "stateMutability": "nonpayable",
      "type": "function"
    }
  ],
  "bytecode": "0x608060405234801561001057600080fd5b50336040518060400160405280600881526020017f536f6e69634e46540000000000000000000000000000000000000000000000008152506040518060400160405280600481526020017f534e465400000000000000000000000000000000000000000000000000000000815250816000908161008d919061043d565b50806001908161009d919061043d565b505050600073ffffffffffffffffffffffffffffffffffffffff168173ffffffffffffffffffffffffffffffffffffffff16036101125760006040517f1e4fbdf70000000000000000000000000000000000000000000000000000000081526004016101099190610550565b60405180910390fd5b6101218161012760201b60201c565b5061056b565b6000600760009054906101000a900473ffffffffffffffffffffffffffffffffffffffff16905081600760006101000a81548173ffffffffffffffffffffffffffffffffffffffff021916908373ffffffffffffffffffffffffffffffffffffffff1602179055508173ffffffffffffffffffffffffffffffffffffffff168173ffffffffffffffffffffffffffffffffffffffff167f8be0079c531659141344cd1fd0a4f28419497f9722a3daafe3b4186f6b6457e060405160405180910390a35050565b600081519050919050565b7f4e487b7100000000000000000000000000000000000000000000000000000000600052604160045260246000fd5b7f4e487b7100000000000000000000000000000000000000000000000000000000600052602260045260246000fd5b6000600282049050600182168061026e57607f821691505b60208210810361028157610280610227565b5b50919050565b60008190508160005260206000209050919050565b60006020601f8301049050919050565b600082821b905092915050565b6000600883026102e97fffffffffffffffffffffffffffffffffffffffffffffffffffffffffffffffff826102ac565b6102f386836102ac565b95508019841693508086168417925050509392505050565b6000819050919050565b6000819050919050565b600061033a6103356103308461030b565b610315565b61030b565b9050919050565b6000819050919050565b6103548361031f565b61036861036082610341565b8484546102b9565b825550505050565b600090565b61037d610370565b61038881848461034b565b505050565b5b818110156103ac576103a1600082610375565b60018101905061038e565b5050565b601f8211156103f1576103c281610287565b6103cb8461029c565b810160208510156103da578190505b6103ee6103e68561029c565b83018261038d565b50505b505050565b600082821c905092915050565b6000610414600019846008026103f6565b1980831691505092915050565b600061042d8383610403565b9150826002028217905092915050565b610446826101ed565b67ffffffffffffffff81111561045f5761045e6101f8565b5b6104698254610256565b6104748282856103b0565b600060209050601f8311600181146104a75760008415610495578287015190505b61049f8582610421565b865550610507565b601f1984166104b586610287565b60005b828110156104dd578489015182556001820191506020850194506020810190506104b8565b868310156104fa57848901516104f6601f891682610403565b8355505b6001600288020188555050505b505050505050565b600073ffffffffffffffffffffffffffffffffffffffff82169050919050565b600061053a8261050f565b9050919050565b61054a8161052f565b82525050565b60006020820190506105656000830184610541565b92915050565b612d268061057a6000396000f3fe60806040526004361061011f5760003560e01c80638da5cb5b116100a0578063d9f10a2b11610064578063d9f10a2b146103d6578063e80d7fec14610413578063e985e9c51461043c578063eacabe1414610479578063f2fde38b146104b65761011f565b80638da5cb5b146102f157806395d89b411461031c578063a22cb46514610347578063b88d4fde14610370578063c87b56dd146103995761011f565b806342842e0e116100e757806342842e0e1461021b57806351ed8288146102445780636352211e1461026057806370a082311461029d578063715018a6146102da5761011f565b806301ffc9a71461012457806306fdde0314610161578063081812fc1461018c578063095ea7b3146101c957806323b872dd146101f2575b600080fd5b34801561013057600080fd5b5061014b60048036038101906101469190611f8e565b6104df565b6040516101589190611fd6565b60405180910390f35b34801561016d57600080fd5b50610176610540565b6040516101839190612081565b60405180910390f35b34801561019857600080fd5b506101b360048036038101906101ae91906120d9565b6105d2565b6040516101c09190612147565b60405180910390f35b3480156101d557600080fd5b506101f060048036038101906101eb919061218e565b6105ee565b005b3480156101fe57600080fd5b50610219600480360381019061021491906121ce565b610604565b005b34801561022757600080fd5b50610242600480360381019061023d91906121ce565b610706565b005b61025e600480360381019061025991906120d9565b610726565b005b34801561026c57600080fd5b50610287600480360381019061028291906120d9565b61084e565b6040516102949190612147565b60405180910390f35b3480156102a957600080fd5b506102c460048036038101906102bf9190612221565b610860565b6040516102d1919061225d565b60405180910390f35b3480156102e657600080fd5b506102ef61091a565b005b3480156102fd57600080fd5b5061030661092e565b6040516103139190612147565b60405180910390f35b34801561032857600080fd5b50610331610958565b60405161033e9190612081565b60405180910390f35b34801561035357600080fd5b5061036e600480360381019061036991906122a4565b6109ea565b005b34801561037c57600080fd5b5061039760048036038101906103929190612419565b610a00565b005b3480156103a557600080fd5b506103c060048036038101906103bb91906120d9565b610a25565b6040516103cd9190612081565b60405180910390f35b3480156103e257600080fd5b506103fd60048036038101906103f891906120d9565b610b38565b60405161040a919061225d565b60405180910390f35b34801561041f57600080fd5b5061043a6004803603810190610435919061249c565b610b50565b005b34801561044857600080fd5b50610463600480360381019061045e91906124dc565b610c25565b6040516104709190611fd6565b60405180910390f35b34801561048557600080fd5b506104a0600480360381019061049b91906125bd565b610cb9565b6040516104ad919061225d565b60405180910390f35b3480156104c257600080fd5b506104dd60048036038101906104d89190612221565b610d00565b005b6000634906490660e01b7bffffffffffffffffffffffffffffffffffffffffffffffffffffffff1916827bffffffffffffffffffffffffffffffffffffffffffffffffffffffff19161480610539575061053882610d86565b5b9050919050565b60606000805461054f90612648565b80601f016020809104026020016040519081016040528092919081815260200182805461057b90612648565b80156105c85780601f1061059d576101008083540402835291602001916105c8565b820191906000526020600020905b8154815290600101906020018083116105ab57829003601f168201915b5050505050905090565b60006105dd82610e68565b506105e782610ef0565b9050919050565b61060082826105fb610f2d565b610f35565b5050565b600073ffffffffffffffffffffffffffffffffffffffff168273ffffffffffffffffffffffffffffffffffffffff16036106765760006040517f64a0ae9200000000000000000000000000000000000000000000000000000000815260040161066d9190612147565b60405180910390fd5b600061068a8383610685610f2d565b610f47565b90508373ffffffffffffffffffffffffffffffffffffffff168173ffffffffffffffffffffffffffffffffffffffff1614610700578382826040517f64283d7b0000000000000000000000000000000000000000000000000000000081526004016106f793929190612679565b60405180910390fd5b50505050565b61072183838360405180602001604052806000815250610a00565b505050565b600060096000838152602001908152602001600020541161077c576040517f08c379a0000000000000000000000000000000000000000000000000000000008152600401610773906126fc565b60405180910390fd5b60096000828152602001908152602001600020543410156107d2576040517f08c379a00000000000000000000000000000000000000000000000000000000081526004016107c990612768565b60405180910390fd5b60006107dd8261084e565b90506107ea813384611161565b8073ffffffffffffffffffffffffffffffffffffffff166108fc349081150290604051600060405180830381858888f19350505050158015610830573d6000803e3d6000fd5b50600060096000848152602001908152602001600020819055505050565b600061085982610e68565b9050919050565b60008073ffffffffffffffffffffffffffffffffffffffff168273ffffffffffffffffffffffffffffffffffffffff16036108d35760006040517f89c62b640000000000000000000000000000000000000000000000000000000081526004016108ca9190612147565b60405180910390fd5b600360008373ffffffffffffffffffffffffffffffffffffffff1673ffffffffffffffffffffffffffffffffffffffff168152602001908152602001600020549050919050565b6109226112ce565b61092c6000611355565b565b6000600760009054906101000a900473ffffffffffffffffffffffffffffffffffffffff16905090565b60606001805461096790612648565b80601f016020809104026020016040519081016040528092919081815260200182805461099390612648565b80156109e05780601f106109b5576101008083540402835291602001916109e0565b820191906000526020600020905b8154815290600101906020018083116109c357829003601f168201915b5050505050905090565b6109fc6109f5610f2d565b838361141b565b5050565b610a0b848484610604565b610a1f610a16610f2d565b8585858561158a565b50505050565b6060610a3082610e68565b506000600660008481526020019081526020016000208054610a5190612648565b80601f0160208091040260200160405190810160405280929190818152602001828054610a7d90612648565b8015610aca5780601f10610a9f57610100808354040283529160200191610aca565b820191906000526020600020905b815481529060010190602001808311610aad57829003601f168201915b505050505090506000610adb61173b565b90506000815103610af0578192505050610b33565b600082511115610b25578082604051602001610b0d9291906127c4565b60405160208183030381529060405292505050610b33565b610b2e84611752565b925050505b919050565b60096020528060005260406000206000915090505481565b3373ffffffffffffffffffffffffffffffffffffffff16610b708361084e565b73ffffffffffffffffffffffffffffffffffffffff1614610bc6576040517f08c379a0000000000000000000000000000000000000000000000000000000008152600401610bbd90612834565b60405180910390fd5b60008111610c09576040517f08c379a0000000000000000000000000000000000000000000000000000000008152600401610c00906128a0565b60405180910390fd5b8060096000848152602001908152602001600020819055505050565b6000600560008473ffffffffffffffffffffffffffffffffffffffff1673ffffffffffffffffffffffffffffffffffffffff16815260200190815260200160002060008373ffffffffffffffffffffffffffffffffffffffff1673ffffffffffffffffffffffffffffffffffffffff16815260200190815260200160002060009054906101000a900460ff16905092915050565b6000610cc36112ce565b60086000815480929190610cd6906128ef565b919050555060006008549050610cec84826117bb565b610cf681846118b4565b8091505092915050565b610d086112ce565b600073ffffffffffffffffffffffffffffffffffffffff168173ffffffffffffffffffffffffffffffffffffffff1603610d7a5760006040517f1e4fbdf7000000000000000000000000000000000000000000000000000000008152600401610d719190612147565b60405180910390fd5b610d8381611355565b50565b60007f80ac58cd000000000000000000000000000000000000000000000000000000007bffffffffffffffffffffffffffffffffffffffffffffffffffffffff1916827bffffffffffffffffffffffffffffffffffffffffffffffffffffffff19161480610e5157507f5b5e139f000000000000000000000000000000000000000000000000000000007bffffffffffffffffffffffffffffffffffffffffffffffffffffffff1916827bffffffffffffffffffffffffffffffffffffffffffffffffffffffff1916145b80610e615750610e6082611910565b5b9050919050565b600080610e748361197a565b9050600073ffffffffffffffffffffffffffffffffffffffff168173ffffffffffffffffffffffffffffffffffffffff1603610ee757826040517f7e273289000000000000000000000000000000000000000000000000000000008152600401610ede919061225d565b60405180910390fd5b80915050919050565b60006004600083815260200190815260200160002060009054906101000a900473ffffffffffffffffffffffffffffffffffffffff169050919050565b600033905090565b610f4283838360016119b7565b505050565b600080610f538461197a565b9050600073ffffffffffffffffffffffffffffffffffffffff168373ffffffffffffffffffffffffffffffffffffffff1614610f9557610f94818486611b7c565b5b600073ffffffffffffffffffffffffffffffffffffffff168173ffffffffffffffffffffffffffffffffffffffff161461102657610fd76000856000806119b7565b6001600360008373ffffffffffffffffffffffffffffffffffffffff1673ffffffffffffffffffffffffffffffffffffffff168152602001908152602001600020600082825403925050819055505b600073ffffffffffffffffffffffffffffffffffffffff168573ffffffffffffffffffffffffffffffffffffffff16146110a9576001600360008773ffffffffffffffffffffffffffffffffffffffff1673ffffffffffffffffffffffffffffffffffffffff168152602001908152602001600020600082825401925050819055505b846002600086815260200190815260200160002060006101000a81548173ffffffffffffffffffffffffffffffffffffffff021916908373ffffffffffffffffffffffffffffffffffffffff160217905550838573ffffffffffffffffffffffffffffffffffffffff168273ffffffffffffffffffffffffffffffffffffffff167fddf252ad1be2c89b69c2b068fc378daa952ba7f163c4a11628f55a4df523b3ef60405160405180910390a4809150509392505050565b600073ffffffffffffffffffffffffffffffffffffffff168273ffffffffffffffffffffffffffffffffffffffff16036111d35760006040517f64a0ae920000000000000000000000000000000000000000000000000000000081526004016111ca9190612147565b60405180910390fd5b60006111e183836000610f47565b9050600073ffffffffffffffffffffffffffffffffffffffff168173ffffffffffffffffffffffffffffffffffffffff160361125457816040517f7e27328900000000000000000000000000000000000000000000000000000000815260040161124b919061225d565b60405180910390fd5b8373ffffffffffffffffffffffffffffffffffffffff168173ffffffffffffffffffffffffffffffffffffffff16146112c8578382826040517f64283d7b0000000000000000000000000000000000000000000000000000000081526004016112bf93929190612679565b60405180910390fd5b50505050565b6112d6610f2d565b73ffffffffffffffffffffffffffffffffffffffff166112f461092e565b73ffffffffffffffffffffffffffffffffffffffff161461135357611317610f2d565b6040517f118cdaa700000000000000000000000000000000000000000000000000000000815260040161134a9190612147565b60405180910390fd5b565b6000600760009054906101000a900473ffffffffffffffffffffffffffffffffffffffff16905081600760006101000a81548173ffffffffffffffffffffffffffffffffffffffff021916908373ffffffffffffffffffffffffffffffffffffffff1602179055508173ffffffffffffffffffffffffffffffffffffffff168173ffffffffffffffffffffffffffffffffffffffff167f8be0079c531659141344cd1fd0a4f28419497f9722a3daafe3b4186f6b6457e060405160405180910390a35050565b600073ffffffffffffffffffffffffffffffffffffffff168273ffffffffffffffffffffffffffffffffffffffff160361148c57816040517f5b08ba180000000000000000000000000000000000000000000000000000000081526004016114839190612147565b60405180910390fd5b80600560008573ffffffffffffffffffffffffffffffffffffffff1673ffffffffffffffffffffffffffffffffffffffff16815260200190815260200160002060008473ffffffffffffffffffffffffffffffffffffffff1673ffffffffffffffffffffffffffffffffffffffff16815260200190815260200160002060006101000a81548160ff0219169083151502179055508173ffffffffffffffffffffffffffffffffffffffff168373ffffffffffffffffffffffffffffffffffffffff167f17307eab39ab6107e8899845ad3d59bd9653f200f220920489ca2b5937696c318360405161157d9190611fd6565b60405180910390a3505050565b60008373ffffffffffffffffffffffffffffffffffffffff163b1115611734578273ffffffffffffffffffffffffffffffffffffffff1663150b7a02868685856040518563ffffffff1660e01b81526004016115e9949392919061298c565b6020604051808303816000875af192505050801561162557506040513d601f19601f8201168201806040525081019061162291906129ed565b60015b6116a9573d8060008114611655576040519150601f19603f3d011682016040523d82523d6000602084013e61165a565b606091505b5060008151036116a157836040517f64a0ae920000000000000000000000000000000000000000000000000000000081526004016116989190612147565b60405180910390fd5b805181602001fd5b63150b7a0260e01b7bffffffffffffffffffffffffffffffffffffffffffffffffffffffff1916817bffffffffffffffffffffffffffffffffffffffffffffffffffffffff19161461173257836040517f64a0ae920000000000000000000000000000000000000000000000000000000081526004016117299190612147565b60405180910390fd5b505b5050505050565b606060405180602001604052806000815250905090565b606061175d82610e68565b50600061176861173b565b9050600081511161178857604051806020016040528060008152506117b3565b8061179284611c40565b6040516020016117a39291906127c4565b6040516020818303038152906040525b915050919050565b600073ffffffffffffffffffffffffffffffffffffffff168273ffffffffffffffffffffffffffffffffffffffff160361182d5760006040517f64a0ae920000000000000000000000000000000000000000000000000000000081526004016118249190612147565b60405180910390fd5b600061183b83836000610f47565b9050600073ffffffffffffffffffffffffffffffffffffffff168173ffffffffffffffffffffffffffffffffffffffff16146118af5760006040517f73c6ac6e0000000000000000000000000000000000000000000000000000000081526004016118a69190612147565b60405180910390fd5b505050565b806006600084815260200190815260200160002090816118d49190612bc6565b507ff8e1a15aba9398e019f0b49df1a4fde98ee17ae345cb5f6b5e2c27f5033e8ce782604051611904919061225d565b60405180910390a15050565b60007f01ffc9a7000000000000000000000000000000000000000000000000000000007bffffffffffffffffffffffffffffffffffffffffffffffffffffffff1916827bffffffffffffffffffffffffffffffffffffffffffffffffffffffff1916149050919050565b60006002600083815260200190815260200160002060009054906101000a900473ffffffffffffffffffffffffffffffffffffffff169050919050565b80806119f05750600073ffffffffffffffffffffffffffffffffffffffff168273ffffffffffffffffffffffffffffffffffffffff1614155b15611b24576000611a0084610e68565b9050600073ffffffffffffffffffffffffffffffffffffffff168373ffffffffffffffffffffffffffffffffffffffff1614158015611a6b57508273ffffffffffffffffffffffffffffffffffffffff168173ffffffffffffffffffffffffffffffffffffffff1614155b8015611a7e5750611a7c8184610c25565b155b15611ac057826040517fa9fbf51f000000000000000000000000000000000000000000000000000000008152600401611ab79190612147565b60405180910390fd5b8115611b2257838573ffffffffffffffffffffffffffffffffffffffff168273ffffffffffffffffffffffffffffffffffffffff167f8c5be1e5ebec7d5bd14f71427d1e84f3dd0314c0f7b2291e5b200ac8c7c3b92560405160405180910390a45b505b836004600085815260200190815260200160002060006101000a81548173ffffffffffffffffffffffffffffffffffffffff021916908373ffffffffffffffffffffffffffffffffffffffff16021790555050505050565b611b87838383611d0e565b611c3b57600073ffffffffffffffffffffffffffffffffffffffff168373ffffffffffffffffffffffffffffffffffffffff1603611bfc57806040517f7e273289000000000000000000000000000000000000000000000000000000008152600401611bf3919061225d565b60405180910390fd5b81816040517f177e802f000000000000000000000000000000000000000000000000000000008152600401611c32929190612c98565b60405180910390fd5b505050565b606060006001611c4f84611dcf565b01905060008167ffffffffffffffff811115611c6e57611c6d6122ee565b5b6040519080825280601f01601f191660200182016040528015611ca05781602001600182028036833780820191505090505b509050600082602001820190505b600115611d03578080600190039150507f3031323334353637383961626364656600000000000000000000000000000000600a86061a8153600a8581611cf757611cf6612cc1565b5b04945060008503611cae575b819350505050919050565b60008073ffffffffffffffffffffffffffffffffffffffff168373ffffffffffffffffffffffffffffffffffffffff1614158015611dc657508273ffffffffffffffffffffffffffffffffffffffff168473ffffffffffffffffffffffffffffffffffffffff161480611d875750611d868484610c25565b5b80611dc557508273ffffffffffffffffffffffffffffffffffffffff16611dad83610ef0565b73ffffffffffffffffffffffffffffffffffffffff16145b5b90509392505050565b600080600090507a184f03e93ff9f4daa797ed6e38ed64bf6a1f0100000000000000008310611e2d577a184f03e93ff9f4daa797ed6e38ed64bf6a1f0100000000000000008381611e2357611e22612cc1565b5b0492506040810190505b6d04ee2d6d415b85acef81000000008310611e6a576d04ee2d6d415b85acef81000000008381611e6057611e5f612cc1565b5b0492506020810190505b662386f26fc100008310611e9957662386f26fc100008381611e8f57611e8e612cc1565b5b0492506010810190505b6305f5e1008310611ec2576305f5e1008381611eb857611eb7612cc1565b5b0492506008810190505b6127108310611ee7576127108381611edd57611edc612cc1565b5b0492506004810190505b60648310611f0a5760648381611f0057611eff612cc1565b5b0492506002810190505b600a8310611f19576001810190505b80915050919050565b6000604051905090565b600080fd5b600080fd5b60007fffffffff0000000000000000000000000000000000000000000000000000000082169050919050565b611f6b81611f36565b8114611f7657600080fd5b50565b600081359050611f8881611f62565b92915050565b600060208284031215611fa457611fa3611f2c565b5b6000611fb284828501611f79565b91505092915050565b60008115159050919050565b611fd081611fbb565b82525050565b6000602082019050611feb6000830184611fc7565b92915050565b600081519050919050565b600082825260208201905092915050565b60005b8381101561202b578082015181840152602081019050612010565b60008484015250505050565b6000601f19601f8301169050919050565b600061205382611ff1565b61205d8185611ffc565b935061206d81856020860161200d565b61207681612037565b840191505092915050565b6000602082019050818103600083015261209b8184612048565b905092915050565b6000819050919050565b6120b6816120a3565b81146120c157600080fd5b50565b6000813590506120d3816120ad565b92915050565b6000602082840312156120ef576120ee611f2c565b5b60006120fd848285016120c4565b91505092915050565b600073ffffffffffffffffffffffffffffffffffffffff82169050919050565b600061213182612106565b9050919050565b61214181612126565b82525050565b600060208201905061215c6000830184612138565b92915050565b61216b81612126565b811461217657600080fd5b50565b60008135905061218881612162565b92915050565b600080604083850312156121a5576121a4611f2c565b5b60006121b385828601612179565b92505060206121c4858286016120c4565b9150509250929050565b6000806000606084860312156121e7576121e6611f2c565b5b60006121f586828701612179565b935050602061220686828701612179565b9250506040612217868287016120c4565b9150509250925092565b60006020828403121561223757612236611f2c565b5b600061224584828501612179565b91505092915050565b612257816120a3565b82525050565b6000602082019050612272600083018461224e565b92915050565b61228181611fbb565b811461228c57600080fd5b50565b60008135905061229e81612278565b92915050565b600080604083850312156122bb576122ba611f2c565b5b60006122c985828601612179565b92505060206122da8582860161228f565b9150509250929050565b600080fd5b600080fd5b7f4e487b7100000000000000000000000000000000000000000000000000000000600052604160045260246000fd5b61232682612037565b810181811067ffffffffffffffff82111715612345576123446122ee565b5b80604052505050565b6000612358611f22565b9050612364828261231d565b919050565b600067ffffffffffffffff821115612384576123836122ee565b5b61238d82612037565b9050602081019050919050565b82818337600083830152505050565b60006123bc6123b784612369565b61234e565b9050828152602081018484840111156123d8576123d76122e9565b5b6123e384828561239a565b509392505050565b600082601f830112612400576123ff6122e4565b5b81356124108482602086016123a9565b91505092915050565b6000806000806080858703121561243357612432611f2c565b5b600061244187828801612179565b945050602061245287828801612179565b9350506040612463878288016120c4565b925050606085013567ffffffffffffffff81111561248457612483611f31565b5b612490878288016123eb565b91505092959194509250565b600080604083850312156124b3576124b2611f2c565b5b60006124c1858286016120c4565b92505060206124d2858286016120c4565b9150509250929050565b600080604083850312156124f3576124f2611f2c565b5b600061250185828601612179565b925050602061251285828601612179565b9150509250929050565b600067ffffffffffffffff821115612537576125366122ee565b5b61254082612037565b9050602081019050919050565b600061256061255b8461251c565b61234e565b90508281526020810184848401111561257c5761257b6122e9565b5b61258784828561239a565b509392505050565b600082601f8301126125a4576125a36122e4565b5b81356125b484826020860161254d565b91505092915050565b600080604083850312156125d4576125d3611f2c565b5b60006125e285828601612179565b925050602083013567ffffffffffffffff81111561260357612602611f31565b5b61260f8582860161258f565b9150509250929050565b7f4e487b7100000000000000000000000000000000000000000000000000000000600052602260045260246000fd5b6000600282049050600182168061266057607f821691505b60208210810361267357612672612619565b5b50919050565b600060608201905061268e6000830186612138565b61269b602083018561224e565b6126a86040830184612138565b949350505050565b7f4e4654206e6f7420666f722073616c6500000000000000000000000000000000600082015250565b60006126e6601083611ffc565b91506126f1826126b0565b602082019050919050565b60006020820190508181036000830152612715816126d9565b9050919050565b7f496e73756666696369656e742066756e64730000000000000000000000000000600082015250565b6000612752601283611ffc565b915061275d8261271c565b602082019050919050565b6000602082019050818103600083015261278181612745565b9050919050565b600081905092915050565b600061279e82611ff1565b6127a88185612788565b93506127b881856020860161200d565b80840191505092915050565b60006127d08285612793565b91506127dc8284612793565b91508190509392505050565b7f4f6e6c7920746865206f776e65722063616e206c697374000000000000000000600082015250565b600061281e601783611ffc565b9150612829826127e8565b602082019050919050565b6000602082019050818103600083015261284d81612811565b9050919050565b7f5072696365206d7573742062652067726561746572207468616e207a65726f00600082015250565b600061288a601f83611ffc565b915061289582612854565b602082019050919050565b600060208201905081810360008301526128b98161287d565b9050919050565b7f4e487b7100000000000000000000000000000000000000000000000000000000600052601160045260246000fd5b60006128fa826120a3565b91507fffffffffffffffffffffffffffffffffffffffffffffffffffffffffffffffff820361292c5761292b6128c0565b5b600182019050919050565b600081519050919050565b600082825260208201905092915050565b600061295e82612937565b6129688185612942565b935061297881856020860161200d565b61298181612037565b840191505092915050565b60006080820190506129a16000830187612138565b6129ae6020830186612138565b6129bb604083018561224e565b81810360608301526129cd8184612953565b905095945050505050565b6000815190506129e781611f62565b92915050565b600060208284031215612a0357612a02611f2c565b5b6000612a11848285016129d8565b91505092915050565b60008190508160005260206000209050919050565b60006020601f8301049050919050565b600082821b905092915050565b600060088302612a7c7fffffffffffffffffffffffffffffffffffffffffffffffffffffffffffffffff82612a3f565b612a868683612a3f565b95508019841693508086168417925050509392505050565b6000819050919050565b6000612ac3612abe612ab9846120a3565b612a9e565b6120a3565b9050919050565b6000819050919050565b612add83612aa8565b612af1612ae982612aca565b848454612a4c565b825550505050565b600090565b612b06612af9565b612b11818484612ad4565b505050565b5b81811015612b3557612b2a600082612afe565b600181019050612b17565b5050565b601f821115612b7a57612b4b81612a1a565b612b5484612a2f565b81016020851015612b63578190505b612b77612b6f85612a2f565b830182612b16565b50505b505050565b600082821c905092915050565b6000612b9d60001984600802612b7f565b1980831691505092915050565b6000612bb68383612b8c565b9150826002028217905092915050565b612bcf82611ff1565b67ffffffffffffffff811115612be857612be76122ee565b5b612bf28254612648565b612bfd828285612b39565b600060209050601f831160018114612c305760008415612c1e578287015190505b612c288582612baa565b865550612c90565b601f198416612c3e86612a1a565b60005b82811015612c6657848901518255600182019150602085019450602081019050612c41565b86831015612c835784890151612c7f601f891682612b8c565b8355505b6001600288020188555050505b505050505050565b6000604082019050612cad6000830185612138565b612cba602083018461224e565b9392505050565b7f4e487b7100000000000000000000000000000000000000000000000000000000600052601260045260246000fdfea264697066735822122020c67b3e72535ff02f931438275fedc6073199669482a8e3d53381926ad30e5664736f6c634300081c0033",
  "linkReferences": {},
  "deployedLinkReferences": {}
}